{
  "_format": "hh-sol-artifact-1",
  "contractName": "Upload",
  "sourceName": "contracts/Upload.sol",
  "abi": [
    {
      "inputs": [
        {
          "internalType": "address",
          "name": "_user",
          "type": "address"
        },
        {
          "internalType": "string",
          "name": "item",
          "type": "string"
        }
      ],
      "name": "add",
      "outputs": [],
      "stateMutability": "nonpayable",
      "type": "function"
    },
    {
      "inputs": [
        {
          "internalType": "address",
          "name": "_user",
          "type": "address"
        }
      ],
      "name": "allow",
      "outputs": [],
      "stateMutability": "nonpayable",
      "type": "function"
    },
    {
      "inputs": [
        {
          "internalType": "address",
          "name": "_user",
          "type": "address"
        }
      ],
      "name": "display",
      "outputs": [
        {
          "internalType": "string[]",
          "name": "",
          "type": "string[]"
        }
      ],
      "stateMutability": "view",
      "type": "function"
    },
    {
      "inputs": [
        {
          "internalType": "address",
          "name": "_user",
          "type": "address"
        }
      ],
      "name": "revoke",
      "outputs": [],
      "stateMutability": "nonpayable",
      "type": "function"
    },
    {
      "inputs": [],
      "name": "sharedAccess",
      "outputs": [
        {
          "components": [
            {
              "internalType": "address",
              "name": "user",
              "type": "address"
            },
            {
              "internalType": "bool",
              "name": "access",
              "type": "bool"
            }
          ],
          "internalType": "struct Upload.Access[]",
          "name": "",
          "type": "tuple[]"
        }
      ],
      "stateMutability": "view",
      "type": "function"
    }
  ],
  "bytecode": "0x608060405234801561001057600080fd5b50611250806100206000396000f3fe608060405234801561001057600080fd5b50600436106100575760003560e01c806336d6da551461005c5780634f56e85c1461007857806374a8f10314610096578063eb39113f146100b2578063ff9913e8146100e2575b600080fd5b61007660048036038101906100719190610d6c565b6100fe565b005b61008061017a565b60405161008d9190610ed0565b60405180910390f35b6100b060048036038101906100ab9190610ef2565b610283565b005b6100cc60048036038101906100c79190610ef2565b6104a6565b6040516100d99190611069565b60405180910390f35b6100fc60048036038101906100f79190610ef2565b6106c3565b005b6000808373ffffffffffffffffffffffffffffffffffffffff1673ffffffffffffffffffffffffffffffffffffffff16815260200190815260200160002081908060018154018082558091505060019003906000526020600020016000909190919091509080519060200190610175929190610b11565b505050565b6060600160003373ffffffffffffffffffffffffffffffffffffffff1673ffffffffffffffffffffffffffffffffffffffff168152602001908152602001600020805480602002602001604051908101604052809291908181526020016000905b8282101561027a578382906000526020600020016040518060400160405290816000820160009054906101000a900473ffffffffffffffffffffffffffffffffffffffff1673ffffffffffffffffffffffffffffffffffffffff1673ffffffffffffffffffffffffffffffffffffffff1681526020016000820160149054906101000a900460ff161515151581525050815260200190600101906101db565b50505050905090565b6000600260003373ffffffffffffffffffffffffffffffffffffffff1673ffffffffffffffffffffffffffffffffffffffff16815260200190815260200160002060008373ffffffffffffffffffffffffffffffffffffffff1673ffffffffffffffffffffffffffffffffffffffff16815260200190815260200160002060006101000a81548160ff02191690831515021790555060005b600160003373ffffffffffffffffffffffffffffffffffffffff1673ffffffffffffffffffffffffffffffffffffffff168152602001908152602001600020805490508110156104a2578173ffffffffffffffffffffffffffffffffffffffff16600160003373ffffffffffffffffffffffffffffffffffffffff1673ffffffffffffffffffffffffffffffffffffffff16815260200190815260200160002082815481106103cd576103cc61108b565b5b9060005260206000200160000160009054906101000a900473ffffffffffffffffffffffffffffffffffffffff1673ffffffffffffffffffffffffffffffffffffffff16141561048f576000600160003373ffffffffffffffffffffffffffffffffffffffff1673ffffffffffffffffffffffffffffffffffffffff168152602001908152602001600020828154811061046a5761046961108b565b5b9060005260206000200160000160146101000a81548160ff0219169083151502179055505b808061049a906110f3565b91505061031b565b5050565b60603373ffffffffffffffffffffffffffffffffffffffff168273ffffffffffffffffffffffffffffffffffffffff16148061056f575060011515600260008473ffffffffffffffffffffffffffffffffffffffff1673ffffffffffffffffffffffffffffffffffffffff16815260200190815260200160002060003373ffffffffffffffffffffffffffffffffffffffff1673ffffffffffffffffffffffffffffffffffffffff16815260200190815260200160002060009054906101000a900460ff161515145b6105ae576040517f08c379a00000000000000000000000000000000000000000000000000000000081526004016105a590611199565b60405180910390fd5b6000808373ffffffffffffffffffffffffffffffffffffffff1673ffffffffffffffffffffffffffffffffffffffff168152602001908152602001600020805480602002602001604051908101604052809291908181526020016000905b828210156106b857838290600052602060002001805461062b906111e8565b80601f0160208091040260200160405190810160405280929190818152602001828054610657906111e8565b80156106a45780601f10610679576101008083540402835291602001916106a4565b820191906000526020600020905b81548152906001019060200180831161068757829003601f168201915b50505050508152602001906001019061060c565b505050509050919050565b6001600260003373ffffffffffffffffffffffffffffffffffffffff1673ffffffffffffffffffffffffffffffffffffffff16815260200190815260200160002060008373ffffffffffffffffffffffffffffffffffffffff1673ffffffffffffffffffffffffffffffffffffffff16815260200190815260200160002060006101000a81548160ff02191690831515021790555060011515600360003373ffffffffffffffffffffffffffffffffffffffff1673ffffffffffffffffffffffffffffffffffffffff16815260200190815260200160002060008373ffffffffffffffffffffffffffffffffffffffff1673ffffffffffffffffffffffffffffffffffffffff16815260200190815260200160002060009054906101000a900460ff161515141561097d5760005b600160003373ffffffffffffffffffffffffffffffffffffffff1673ffffffffffffffffffffffffffffffffffffffff16815260200190815260200160002080549050811015610977578173ffffffffffffffffffffffffffffffffffffffff16600160003373ffffffffffffffffffffffffffffffffffffffff1673ffffffffffffffffffffffffffffffffffffffff16815260200190815260200160002082815481106108a3576108a261108b565b5b9060005260206000200160000160009054906101000a900473ffffffffffffffffffffffffffffffffffffffff1673ffffffffffffffffffffffffffffffffffffffff1614156109645760018060003373ffffffffffffffffffffffffffffffffffffffff1673ffffffffffffffffffffffffffffffffffffffff168152602001908152602001600020828154811061093f5761093e61108b565b5b9060005260206000200160000160146101000a81548160ff0219169083151502179055505b808061096f906110f3565b9150506107f1565b50610b0e565b600160003373ffffffffffffffffffffffffffffffffffffffff1673ffffffffffffffffffffffffffffffffffffffff16815260200190815260200160002060405180604001604052808373ffffffffffffffffffffffffffffffffffffffff168152602001600115158152509080600181540180825580915050600190039060005260206000200160009091909190915060008201518160000160006101000a81548173ffffffffffffffffffffffffffffffffffffffff021916908373ffffffffffffffffffffffffffffffffffffffff16021790555060208201518160000160146101000a81548160ff02191690831515021790555050506001600360003373ffffffffffffffffffffffffffffffffffffffff1673ffffffffffffffffffffffffffffffffffffffff16815260200190815260200160002060008373ffffffffffffffffffffffffffffffffffffffff1673ffffffffffffffffffffffffffffffffffffffff16815260200190815260200160002060006101000a81548160ff0219169083151502179055505b50565b828054610b1d906111e8565b90600052602060002090601f016020900481019282610b3f5760008555610b86565b82601f10610b5857805160ff1916838001178555610b86565b82800160010185558215610b86579182015b82811115610b85578251825591602001919060010190610b6a565b5b509050610b939190610b97565b5090565b5b80821115610bb0576000816000905550600101610b98565b5090565b6000604051905090565b600080fd5b600080fd5b600073ffffffffffffffffffffffffffffffffffffffff82169050919050565b6000610bf382610bc8565b9050919050565b610c0381610be8565b8114610c0e57600080fd5b50565b600081359050610c2081610bfa565b92915050565b600080fd5b600080fd5b6000601f19601f8301169050919050565b7f4e487b7100000000000000000000000000000000000000000000000000000000600052604160045260246000fd5b610c7982610c30565b810181811067ffffffffffffffff82111715610c9857610c97610c41565b5b80604052505050565b6000610cab610bb4565b9050610cb78282610c70565b919050565b600067ffffffffffffffff821115610cd757610cd6610c41565b5b610ce082610c30565b9050602081019050919050565b82818337600083830152505050565b6000610d0f610d0a84610cbc565b610ca1565b905082815260208101848484011115610d2b57610d2a610c2b565b5b610d36848285610ced565b509392505050565b600082601f830112610d5357610d52610c26565b5b8135610d63848260208601610cfc565b91505092915050565b60008060408385031215610d8357610d82610bbe565b5b6000610d9185828601610c11565b925050602083013567ffffffffffffffff811115610db257610db1610bc3565b5b610dbe85828601610d3e565b9150509250929050565b600081519050919050565b600082825260208201905092915050565b6000819050602082019050919050565b610dfd81610be8565b82525050565b60008115159050919050565b610e1881610e03565b82525050565b604082016000820151610e346000850182610df4565b506020820151610e476020850182610e0f565b50505050565b6000610e598383610e1e565b60408301905092915050565b6000602082019050919050565b6000610e7d82610dc8565b610e878185610dd3565b9350610e9283610de4565b8060005b83811015610ec3578151610eaa8882610e4d565b9750610eb583610e65565b925050600181019050610e96565b5085935050505092915050565b60006020820190508181036000830152610eea8184610e72565b905092915050565b600060208284031215610f0857610f07610bbe565b5b6000610f1684828501610c11565b91505092915050565b600081519050919050565b600082825260208201905092915050565b6000819050602082019050919050565b600081519050919050565b600082825260208201905092915050565b60005b83811015610f85578082015181840152602081019050610f6a565b83811115610f94576000848401525b50505050565b6000610fa582610f4b565b610faf8185610f56565b9350610fbf818560208601610f67565b610fc881610c30565b840191505092915050565b6000610fdf8383610f9a565b905092915050565b6000602082019050919050565b6000610fff82610f1f565b6110098185610f2a565b93508360208202850161101b85610f3b565b8060005b8581101561105757848403895281516110388582610fd3565b945061104383610fe7565b925060208a0199505060018101905061101f565b50829750879550505050505092915050565b600060208201905081810360008301526110838184610ff4565b905092915050565b7f4e487b7100000000000000000000000000000000000000000000000000000000600052603260045260246000fd5b7f4e487b7100000000000000000000000000000000000000000000000000000000600052601160045260246000fd5b6000819050919050565b60006110fe826110e9565b91507fffffffffffffffffffffffffffffffffffffffffffffffffffffffffffffffff821415611131576111306110ba565b5b600182019050919050565b600082825260208201905092915050565b7f4163636573732044656e69656421212100000000000000000000000000000000600082015250565b600061118360108361113c565b915061118e8261114d565b602082019050919050565b600060208201905081810360008301526111b281611176565b9050919050565b7f4e487b7100000000000000000000000000000000000000000000000000000000600052602260045260246000fd5b6000600282049050600182168061120057607f821691505b60208210811415611214576112136111b9565b5b5091905056fea264697066735822122097223251d41acc87c5bd325713d9c566f3387219e516d12fede611bc2a3071f664736f6c63430008090033",
  "linkReferences": {},
  "deployedLinkReferences": {}
}