{
  "_format": "hh-sol-artifact-1",
  "contractName": "Upload",
  "sourceName": "contracts/Upload.sol",
  "abi": [
    {
      "inputs": [
        {
          "internalType": "address",
          "name": "_user",
          "type": "address"
        },
        {
          "internalType": "string",
          "name": "item",
          "type": "string"
        }
      ],
      "name": "add",
      "outputs": [],
      "stateMutability": "nonpayable",
      "type": "function"
    },
    {
      "inputs": [
        {
          "internalType": "address",
          "name": "_user",
          "type": "address"
        }
      ],
      "name": "allow",
      "outputs": [],
      "stateMutability": "nonpayable",
      "type": "function"
    },
    {
      "inputs": [
        {
          "internalType": "address",
          "name": "_user",
          "type": "address"
        }
      ],
      "name": "display",
      "outputs": [
        {
          "internalType": "string[]",
          "name": "",
          "type": "string[]"
        }
      ],
      "stateMutability": "view",
      "type": "function"
    },
    {
      "inputs": [
        {
          "internalType": "address",
          "name": "_user",
          "type": "address"
        }
      ],
      "name": "revoke",
      "outputs": [],
      "stateMutability": "nonpayable",
      "type": "function"
    },
    {
      "inputs": [],
      "name": "sharedAccess",
      "outputs": [
        {
          "components": [
            {
              "internalType": "address",
              "name": "user",
              "type": "address"
            },
            {
              "internalType": "bool",
              "name": "access",
              "type": "bool"
            }
          ],
          "internalType": "struct Upload.Access[]",
          "name": "",
          "type": "tuple[]"
        }
      ],
      "stateMutability": "view",
      "type": "function"
    }
  ],
  "bytecode": "0x608060405234801561001057600080fd5b50611416806100206000396000f3fe608060405234801561001057600080fd5b50600436106100575760003560e01c806336d6da551461005c5780634f56e85c1461007857806374a8f10314610096578063eb39113f146100b2578063ff9913e8146100e2575b600080fd5b61007660048036038101906100719190610cbf565b6100fe565b005b610080610173565b60405161008d9190610e23565b60405180910390f35b6100b060048036038101906100ab9190610e45565b61027c565b005b6100cc60048036038101906100c79190610e45565b61049e565b6040516100d99190610fb3565b60405180910390f35b6100fc60048036038101906100f79190610e45565b6106bb565b005b6000808373ffffffffffffffffffffffffffffffffffffffff1673ffffffffffffffffffffffffffffffffffffffff1681526020019081526020016000208190806001815401808255809150506001900390600052602060002001600090919091909150908161016e91906111eb565b505050565b6060600160003373ffffffffffffffffffffffffffffffffffffffff1673ffffffffffffffffffffffffffffffffffffffff168152602001908152602001600020805480602002602001604051908101604052809291908181526020016000905b82821015610273578382906000526020600020016040518060400160405290816000820160009054906101000a900473ffffffffffffffffffffffffffffffffffffffff1673ffffffffffffffffffffffffffffffffffffffff1673ffffffffffffffffffffffffffffffffffffffff1681526020016000820160149054906101000a900460ff161515151581525050815260200190600101906101d4565b50505050905090565b6000600260003373ffffffffffffffffffffffffffffffffffffffff1673ffffffffffffffffffffffffffffffffffffffff16815260200190815260200160002060008373ffffffffffffffffffffffffffffffffffffffff1673ffffffffffffffffffffffffffffffffffffffff16815260200190815260200160002060006101000a81548160ff02191690831515021790555060005b600160003373ffffffffffffffffffffffffffffffffffffffff1673ffffffffffffffffffffffffffffffffffffffff1681526020019081526020016000208054905081101561049a578173ffffffffffffffffffffffffffffffffffffffff16600160003373ffffffffffffffffffffffffffffffffffffffff1673ffffffffffffffffffffffffffffffffffffffff16815260200190815260200160002082815481106103c6576103c56112bd565b5b9060005260206000200160000160009054906101000a900473ffffffffffffffffffffffffffffffffffffffff1673ffffffffffffffffffffffffffffffffffffffff1603610487576000600160003373ffffffffffffffffffffffffffffffffffffffff1673ffffffffffffffffffffffffffffffffffffffff1681526020019081526020016000208281548110610462576104616112bd565b5b9060005260206000200160000160146101000a81548160ff0219169083151502179055505b80806104929061131b565b915050610314565b5050565b60603373ffffffffffffffffffffffffffffffffffffffff168273ffffffffffffffffffffffffffffffffffffffff161480610567575060011515600260008473ffffffffffffffffffffffffffffffffffffffff1673ffffffffffffffffffffffffffffffffffffffff16815260200190815260200160002060003373ffffffffffffffffffffffffffffffffffffffff1673ffffffffffffffffffffffffffffffffffffffff16815260200190815260200160002060009054906101000a900460ff161515145b6105a6576040517f08c379a000000000000000000000000000000000000000000000000000000000815260040161059d906113c0565b60405180910390fd5b6000808373ffffffffffffffffffffffffffffffffffffffff1673ffffffffffffffffffffffffffffffffffffffff168152602001908152602001600020805480602002602001604051908101604052809291908181526020016000905b828210156106b057838290600052602060002001805461062390611004565b80601f016020809104026020016040519081016040528092919081815260200182805461064f90611004565b801561069c5780601f106106715761010080835404028352916020019161069c565b820191906000526020600020905b81548152906001019060200180831161067f57829003601f168201915b505050505081526020019060010190610604565b505050509050919050565b6001600260003373ffffffffffffffffffffffffffffffffffffffff1673ffffffffffffffffffffffffffffffffffffffff16815260200190815260200160002060008373ffffffffffffffffffffffffffffffffffffffff1673ffffffffffffffffffffffffffffffffffffffff16815260200190815260200160002060006101000a81548160ff02191690831515021790555060011515600360003373ffffffffffffffffffffffffffffffffffffffff1673ffffffffffffffffffffffffffffffffffffffff16815260200190815260200160002060008373ffffffffffffffffffffffffffffffffffffffff1673ffffffffffffffffffffffffffffffffffffffff16815260200190815260200160002060009054906101000a900460ff161515036109735760005b600160003373ffffffffffffffffffffffffffffffffffffffff1673ffffffffffffffffffffffffffffffffffffffff1681526020019081526020016000208054905081101561096d578173ffffffffffffffffffffffffffffffffffffffff16600160003373ffffffffffffffffffffffffffffffffffffffff1673ffffffffffffffffffffffffffffffffffffffff168152602001908152602001600020828154811061089a576108996112bd565b5b9060005260206000200160000160009054906101000a900473ffffffffffffffffffffffffffffffffffffffff1673ffffffffffffffffffffffffffffffffffffffff160361095a5760018060003373ffffffffffffffffffffffffffffffffffffffff1673ffffffffffffffffffffffffffffffffffffffff1681526020019081526020016000208281548110610935576109346112bd565b5b9060005260206000200160000160146101000a81548160ff0219169083151502179055505b80806109659061131b565b9150506107e8565b50610b04565b600160003373ffffffffffffffffffffffffffffffffffffffff1673ffffffffffffffffffffffffffffffffffffffff16815260200190815260200160002060405180604001604052808373ffffffffffffffffffffffffffffffffffffffff168152602001600115158152509080600181540180825580915050600190039060005260206000200160009091909190915060008201518160000160006101000a81548173ffffffffffffffffffffffffffffffffffffffff021916908373ffffffffffffffffffffffffffffffffffffffff16021790555060208201518160000160146101000a81548160ff02191690831515021790555050506001600360003373ffffffffffffffffffffffffffffffffffffffff1673ffffffffffffffffffffffffffffffffffffffff16815260200190815260200160002060008373ffffffffffffffffffffffffffffffffffffffff1673ffffffffffffffffffffffffffffffffffffffff16815260200190815260200160002060006101000a81548160ff0219169083151502179055505b50565b6000604051905090565b600080fd5b600080fd5b600073ffffffffffffffffffffffffffffffffffffffff82169050919050565b6000610b4682610b1b565b9050919050565b610b5681610b3b565b8114610b6157600080fd5b50565b600081359050610b7381610b4d565b92915050565b600080fd5b600080fd5b6000601f19601f8301169050919050565b7f4e487b7100000000000000000000000000000000000000000000000000000000600052604160045260246000fd5b610bcc82610b83565b810181811067ffffffffffffffff82111715610beb57610bea610b94565b5b80604052505050565b6000610bfe610b07565b9050610c0a8282610bc3565b919050565b600067ffffffffffffffff821115610c2a57610c29610b94565b5b610c3382610b83565b9050602081019050919050565b82818337600083830152505050565b6000610c62610c5d84610c0f565b610bf4565b905082815260208101848484011115610c7e57610c7d610b7e565b5b610c89848285610c40565b509392505050565b600082601f830112610ca657610ca5610b79565b5b8135610cb6848260208601610c4f565b91505092915050565b60008060408385031215610cd657610cd5610b11565b5b6000610ce485828601610b64565b925050602083013567ffffffffffffffff811115610d0557610d04610b16565b5b610d1185828601610c91565b9150509250929050565b600081519050919050565b600082825260208201905092915050565b6000819050602082019050919050565b610d5081610b3b565b82525050565b60008115159050919050565b610d6b81610d56565b82525050565b604082016000820151610d876000850182610d47565b506020820151610d9a6020850182610d62565b50505050565b6000610dac8383610d71565b60408301905092915050565b6000602082019050919050565b6000610dd082610d1b565b610dda8185610d26565b9350610de583610d37565b8060005b83811015610e16578151610dfd8882610da0565b9750610e0883610db8565b925050600181019050610de9565b5085935050505092915050565b60006020820190508181036000830152610e3d8184610dc5565b905092915050565b600060208284031215610e5b57610e5a610b11565b5b6000610e6984828501610b64565b91505092915050565b600081519050919050565b600082825260208201905092915050565b6000819050602082019050919050565b600081519050919050565b600082825260208201905092915050565b60005b83811015610ed8578082015181840152602081019050610ebd565b60008484015250505050565b6000610eef82610e9e565b610ef98185610ea9565b9350610f09818560208601610eba565b610f1281610b83565b840191505092915050565b6000610f298383610ee4565b905092915050565b6000602082019050919050565b6000610f4982610e72565b610f538185610e7d565b935083602082028501610f6585610e8e565b8060005b85811015610fa15784840389528151610f828582610f1d565b9450610f8d83610f31565b925060208a01995050600181019050610f69565b50829750879550505050505092915050565b60006020820190508181036000830152610fcd8184610f3e565b905092915050565b7f4e487b7100000000000000000000000000000000000000000000000000000000600052602260045260246000fd5b6000600282049050600182168061101c57607f821691505b60208210810361102f5761102e610fd5565b5b50919050565b60008190508160005260206000209050919050565b60006020601f8301049050919050565b600082821b905092915050565b6000600883026110977fffffffffffffffffffffffffffffffffffffffffffffffffffffffffffffffff8261105a565b6110a1868361105a565b95508019841693508086168417925050509392505050565b6000819050919050565b6000819050919050565b60006110e86110e36110de846110b9565b6110c3565b6110b9565b9050919050565b6000819050919050565b611102836110cd565b61111661110e826110ef565b848454611067565b825550505050565b600090565b61112b61111e565b6111368184846110f9565b505050565b5b8181101561115a5761114f600082611123565b60018101905061113c565b5050565b601f82111561119f5761117081611035565b6111798461104a565b81016020851015611188578190505b61119c6111948561104a565b83018261113b565b50505b505050565b600082821c905092915050565b60006111c2600019846008026111a4565b1980831691505092915050565b60006111db83836111b1565b9150826002028217905092915050565b6111f482610e9e565b67ffffffffffffffff81111561120d5761120c610b94565b5b6112178254611004565b61122282828561115e565b600060209050601f8311600181146112555760008415611243578287015190505b61124d85826111cf565b8655506112b5565b601f19841661126386611035565b60005b8281101561128b57848901518255600182019150602085019450602081019050611266565b868310156112a857848901516112a4601f8916826111b1565b8355505b6001600288020188555050505b505050505050565b7f4e487b7100000000000000000000000000000000000000000000000000000000600052603260045260246000fd5b7f4e487b7100000000000000000000000000000000000000000000000000000000600052601160045260246000fd5b6000611326826110b9565b91507fffffffffffffffffffffffffffffffffffffffffffffffffffffffffffffffff8203611358576113576112ec565b5b600182019050919050565b600082825260208201905092915050565b7f4163636573732044656e69656421212100000000000000000000000000000000600082015250565b60006113aa601083611363565b91506113b582611374565b602082019050919050565b600060208201905081810360008301526113d98161139d565b905091905056fea2646970667358221220d9c9dafbd8db56bc019eb5ae583c3f59385918494d529401f531d0c31ecebabd64736f6c63430008110033",
  "linkReferences": {},
  "deployedLinkReferences": {}
}